{
  "abi": [
    {
      "inputs": [
        {
          "internalType": "string",
          "name": "name",
          "type": "string"
        },
        {
          "internalType": "string",
          "name": "symbol",
          "type": "string"
        },
        {
          "internalType": "string",
          "name": "uri",
          "type": "string"
        }
      ],
      "stateMutability": "nonpayable",
      "type": "constructor"
    },
    {
      "inputs": [],
      "name": "MaxSupply",
      "type": "error"
    },
    {
      "inputs": [],
      "name": "MintPriceNotPaid",
      "type": "error"
    },
    {
      "inputs": [],
      "name": "NonExistentTokenURI",
      "type": "error"
    },
    {
      "inputs": [],
      "name": "WithdrawTransfer",
      "type": "error"
    },
    {
      "anonymous": false,
      "inputs": [
        {
          "indexed": true,
          "internalType": "address",
          "name": "owner",
          "type": "address"
        },
        {
          "indexed": true,
          "internalType": "address",
          "name": "spender",
          "type": "address"
        },
        {
          "indexed": true,
          "internalType": "uint256",
          "name": "id",
          "type": "uint256"
        }
      ],
      "name": "Approval",
      "type": "event"
    },
    {
      "anonymous": false,
      "inputs": [
        {
          "indexed": true,
          "internalType": "address",
          "name": "owner",
          "type": "address"
        },
        {
          "indexed": true,
          "internalType": "address",
          "name": "operator",
          "type": "address"
        },
        {
          "indexed": false,
          "internalType": "bool",
          "name": "approved",
          "type": "bool"
        }
      ],
      "name": "ApprovalForAll",
      "type": "event"
    },
    {
      "anonymous": false,
      "inputs": [
        {
          "indexed": true,
          "internalType": "address",
          "name": "previousOwner",
          "type": "address"
        },
        {
          "indexed": true,
          "internalType": "address",
          "name": "newOwner",
          "type": "address"
        }
      ],
      "name": "OwnershipTransferred",
      "type": "event"
    },
    {
      "anonymous": false,
      "inputs": [
        {
          "indexed": true,
          "internalType": "address",
          "name": "from",
          "type": "address"
        },
        {
          "indexed": true,
          "internalType": "address",
          "name": "to",
          "type": "address"
        },
        {
          "indexed": true,
          "internalType": "uint256",
          "name": "id",
          "type": "uint256"
        }
      ],
      "name": "Transfer",
      "type": "event"
    },
    {
      "inputs": [],
      "name": "MINT_PRICE",
      "outputs": [
        {
          "internalType": "uint256",
          "name": "",
          "type": "uint256"
        }
      ],
      "stateMutability": "view",
      "type": "function"
    },
    {
      "inputs": [],
      "name": "TOTAL_SUPPLY",
      "outputs": [
        {
          "internalType": "uint256",
          "name": "",
          "type": "uint256"
        }
      ],
      "stateMutability": "view",
      "type": "function"
    },
    {
      "inputs": [
        {
          "internalType": "address",
          "name": "spender",
          "type": "address"
        },
        {
          "internalType": "uint256",
          "name": "id",
          "type": "uint256"
        }
      ],
      "name": "approve",
      "outputs": [],
      "stateMutability": "nonpayable",
      "type": "function"
    },
    {
      "inputs": [
        {
          "internalType": "address",
          "name": "owner",
          "type": "address"
        }
      ],
      "name": "balanceOf",
      "outputs": [
        {
          "internalType": "uint256",
          "name": "",
          "type": "uint256"
        }
      ],
      "stateMutability": "view",
      "type": "function"
    },
    {
      "inputs": [],
      "name": "baseURI",
      "outputs": [
        {
          "internalType": "string",
          "name": "",
          "type": "string"
        }
      ],
      "stateMutability": "view",
      "type": "function"
    },
    {
      "inputs": [],
      "name": "currentTokenId",
      "outputs": [
        {
          "internalType": "uint256",
          "name": "",
          "type": "uint256"
        }
      ],
      "stateMutability": "view",
      "type": "function"
    },
    {
      "inputs": [
        {
          "internalType": "uint256",
          "name": "",
          "type": "uint256"
        }
      ],
      "name": "getApproved",
      "outputs": [
        {
          "internalType": "address",
          "name": "",
          "type": "address"
        }
      ],
      "stateMutability": "view",
      "type": "function"
    },
    {
      "inputs": [
        {
          "internalType": "address",
          "name": "",
          "type": "address"
        },
        {
          "internalType": "address",
          "name": "",
          "type": "address"
        }
      ],
      "name": "isApprovedForAll",
      "outputs": [
        {
          "internalType": "bool",
          "name": "",
          "type": "bool"
        }
      ],
      "stateMutability": "view",
      "type": "function"
    },
    {
      "inputs": [
        {
          "internalType": "address",
          "name": "recipient",
          "type": "address"
        }
      ],
      "name": "mintTo",
      "outputs": [
        {
          "internalType": "uint256",
          "name": "",
          "type": "uint256"
        }
      ],
      "stateMutability": "payable",
      "type": "function"
    },
    {
      "inputs": [],
      "name": "name",
      "outputs": [
        {
          "internalType": "string",
          "name": "",
          "type": "string"
        }
      ],
      "stateMutability": "view",
      "type": "function"
    },
    {
      "inputs": [],
      "name": "owner",
      "outputs": [
        {
          "internalType": "address",
          "name": "",
          "type": "address"
        }
      ],
      "stateMutability": "view",
      "type": "function"
    },
    {
      "inputs": [
        {
          "internalType": "uint256",
          "name": "id",
          "type": "uint256"
        }
      ],
      "name": "ownerOf",
      "outputs": [
        {
          "internalType": "address",
          "name": "owner",
          "type": "address"
        }
      ],
      "stateMutability": "view",
      "type": "function"
    },
    {
      "inputs": [],
      "name": "renounceOwnership",
      "outputs": [],
      "stateMutability": "nonpayable",
      "type": "function"
    },
    {
      "inputs": [
        {
          "internalType": "address",
          "name": "from",
          "type": "address"
        },
        {
          "internalType": "address",
          "name": "to",
          "type": "address"
        },
        {
          "internalType": "uint256",
          "name": "id",
          "type": "uint256"
        }
      ],
      "name": "safeTransferFrom",
      "outputs": [],
      "stateMutability": "nonpayable",
      "type": "function"
    },
    {
      "inputs": [
        {
          "internalType": "address",
          "name": "from",
          "type": "address"
        },
        {
          "internalType": "address",
          "name": "to",
          "type": "address"
        },
        {
          "internalType": "uint256",
          "name": "id",
          "type": "uint256"
        },
        {
          "internalType": "bytes",
          "name": "data",
          "type": "bytes"
        }
      ],
      "name": "safeTransferFrom",
      "outputs": [],
      "stateMutability": "nonpayable",
      "type": "function"
    },
    {
      "inputs": [
        {
          "internalType": "address",
          "name": "operator",
          "type": "address"
        },
        {
          "internalType": "bool",
          "name": "approved",
          "type": "bool"
        }
      ],
      "name": "setApprovalForAll",
      "outputs": [],
      "stateMutability": "nonpayable",
      "type": "function"
    },
    {
      "inputs": [
        {
          "internalType": "bytes4",
          "name": "interfaceId",
          "type": "bytes4"
        }
      ],
      "name": "supportsInterface",
      "outputs": [
        {
          "internalType": "bool",
          "name": "",
          "type": "bool"
        }
      ],
      "stateMutability": "view",
      "type": "function"
    },
    {
      "inputs": [],
      "name": "symbol",
      "outputs": [
        {
          "internalType": "string",
          "name": "",
          "type": "string"
        }
      ],
      "stateMutability": "view",
      "type": "function"
    },
    {
      "inputs": [
        {
          "internalType": "uint256",
          "name": "tokenId",
          "type": "uint256"
        }
      ],
      "name": "tokenURI",
      "outputs": [
        {
          "internalType": "string",
          "name": "",
          "type": "string"
        }
      ],
      "stateMutability": "view",
      "type": "function"
    },
    {
      "inputs": [
        {
          "internalType": "address",
          "name": "from",
          "type": "address"
        },
        {
          "internalType": "address",
          "name": "to",
          "type": "address"
        },
        {
          "internalType": "uint256",
          "name": "id",
          "type": "uint256"
        }
      ],
      "name": "transferFrom",
      "outputs": [],
      "stateMutability": "nonpayable",
      "type": "function"
    },
    {
      "inputs": [
        {
          "internalType": "address",
          "name": "newOwner",
          "type": "address"
        }
      ],
      "name": "transferOwnership",
      "outputs": [],
      "stateMutability": "nonpayable",
      "type": "function"
    },
    {
      "inputs": [
        {
          "internalType": "address payable",
          "name": "payee",
          "type": "address"
        }
      ],
      "name": "withdrawPayments",
      "outputs": [],
      "stateMutability": "nonpayable",
      "type": "function"
    }
  ],
  "bytecode": {
    "object": "0x60a0604052600060809081526008906200001a9082620001f0565b503480156200002857600080fd5b5060405162001929380380620019298339810160408190526200004b9162000373565b828260006200005b8382620001f0565b5060016200006a8282620001f0565b5050506200008762000081620000f560201b60201c565b620000f9565b6000815111620000dd5760405162461bcd60e51b815260206004820152601460248201527f555249206d757374206265206e6f20656d707479000000000000000000000000604482015260640160405180910390fd5b6008620000eb8282620001f0565b5050505062000404565b3390565b600680546001600160a01b038381166001600160a01b0319831681179093556040519116919082907f8be0079c531659141344cd1fd0a4f28419497f9722a3daafe3b4186f6b6457e090600090a35050565b634e487b7160e01b600052604160045260246000fd5b600181811c908216806200017657607f821691505b6020821081036200019757634e487b7160e01b600052602260045260246000fd5b50919050565b601f821115620001eb57600081815260208120601f850160051c81016020861015620001c65750805b601f850160051c820191505b81811015620001e757828155600101620001d2565b5050505b505050565b81516001600160401b038111156200020c576200020c6200014b565b62000224816200021d845462000161565b846200019d565b602080601f8311600181146200025c5760008415620002435750858301515b600019600386901b1c1916600185901b178555620001e7565b600085815260208120601f198616915b828110156200028d578886015182559484019460019091019084016200026c565b5085821015620002ac5787850151600019600388901b60f8161c191681555b5050505050600190811b01905550565b600082601f830112620002ce57600080fd5b81516001600160401b0380821115620002eb57620002eb6200014b565b604051601f8301601f19908116603f011681019082821181831017156200031657620003166200014b565b816040528381526020925086838588010111156200033357600080fd5b600091505b8382101562000357578582018301518183018401529082019062000338565b83821115620003695760008385830101525b9695505050505050565b6000806000606084860312156200038957600080fd5b83516001600160401b0380821115620003a157600080fd5b620003af87838801620002bc565b94506020860151915080821115620003c657600080fd5b620003d487838801620002bc565b93506040860151915080821115620003eb57600080fd5b50620003fa86828701620002bc565b9150509250925092565b61151580620004146000396000f3fe6080604052600436106101345760003560e01c8063715018a6116100ab578063a22cb4651161006f578063a22cb46514610349578063b88d4fde14610369578063c002d23d14610389578063c87b56dd146103a4578063e985e9c5146103c4578063f2fde38b146103ff57600080fd5b8063715018a6146102d9578063755edd17146102ee5780638da5cb5b14610301578063902d55a51461031f57806395d89b411461033457600080fd5b806323b872dd116100fd57806323b872dd1461022457806331b3eb941461024457806342842e0e146102645780636352211e146102845780636c0360eb146102a457806370a08231146102b957600080fd5b80629a9b7b1461013957806301ffc9a71461016257806306fdde0314610192578063081812fc146101b4578063095ea7b314610202575b600080fd5b34801561014557600080fd5b5061014f60075481565b6040519081526020015b60405180910390f35b34801561016e57600080fd5b5061018261017d366004611009565b61041f565b6040519015158152602001610159565b34801561019e57600080fd5b506101a7610471565b604051610159919061105d565b3480156101c057600080fd5b506101ea6101cf366004611090565b6004602052600090815260409020546001600160a01b031681565b6040516001600160a01b039091168152602001610159565b34801561020e57600080fd5b5061022261021d3660046110be565b6104ff565b005b34801561023057600080fd5b5061022261023f3660046110ea565b6105e6565b34801561025057600080fd5b5061022261025f36600461112b565b6107ad565b34801561027057600080fd5b5061022261027f3660046110ea565b61082e565b34801561029057600080fd5b506101ea61029f366004611090565b6108fe565b3480156102b057600080fd5b506101a7610955565b3480156102c557600080fd5b5061014f6102d436600461112b565b610962565b3480156102e557600080fd5b506102226109c5565b61014f6102fc36600461112b565b6109d9565b34801561030d57600080fd5b506006546001600160a01b03166101ea565b34801561032b57600080fd5b5061014f600a81565b34801561034057600080fd5b506101a7610a46565b34801561035557600080fd5b50610222610364366004611148565b610a53565b34801561037557600080fd5b50610222610384366004611186565b610abf565b34801561039557600080fd5b5061014f662386f26fc1000081565b3480156103b057600080fd5b506101a76103bf366004611090565b610b84565b3480156103d057600080fd5b506101826103df366004611225565b600560209081526000928352604080842090915290825290205460ff1681565b34801561040b57600080fd5b5061022261041a36600461112b565b610bea565b60006301ffc9a760e01b6001600160e01b03198316148061045057506380ac58cd60e01b6001600160e01b03198316145b8061046b5750635b5e139f60e01b6001600160e01b03198316145b92915050565b6000805461047e90611253565b80601f01602080910402602001604051908101604052809291908181526020018280546104aa90611253565b80156104f75780601f106104cc576101008083540402835291602001916104f7565b820191906000526020600020905b8154815290600101906020018083116104da57829003601f168201915b505050505081565b6000818152600260205260409020546001600160a01b03163381148061054857506001600160a01b038116600090815260056020908152604080832033845290915290205460ff165b61058a5760405162461bcd60e51b815260206004820152600e60248201526d1393d517d055551213d49256915160921b60448201526064015b60405180910390fd5b60008281526004602052604080822080546001600160a01b0319166001600160a01b0387811691821790925591518593918516917f8c5be1e5ebec7d5bd14f71427d1e84f3dd0314c0f7b2291e5b200ac8c7c3b92591a4505050565b6000818152600260205260409020546001600160a01b0384811691161461063c5760405162461bcd60e51b815260206004820152600a60248201526957524f4e475f46524f4d60b01b6044820152606401610581565b6001600160a01b0382166106865760405162461bcd60e51b81526020600482015260116024820152701253959053125117d49150d25412515395607a1b6044820152606401610581565b336001600160a01b03841614806106c057506001600160a01b038316600090815260056020908152604080832033845290915290205460ff165b806106e157506000818152600460205260409020546001600160a01b031633145b61071e5760405162461bcd60e51b815260206004820152600e60248201526d1393d517d055551213d49256915160921b6044820152606401610581565b6001600160a01b0380841660008181526003602090815260408083208054600019019055938616808352848320805460010190558583526002825284832080546001600160a01b03199081168317909155600490925284832080549092169091559251849392917fddf252ad1be2c89b69c2b068fc378daa952ba7f163c4a11628f55a4df523b3ef91a4505050565b6107b5610c63565b60405147906000906001600160a01b0384169083908381818185875af1925050503d8060008114610802576040519150601f19603f3d011682016040523d82523d6000602084013e610807565b606091505b50509050806108295760405163d23a9e8960e01b815260040160405180910390fd5b505050565b6108398383836105e6565b6001600160a01b0382163b15806108e25750604051630a85bd0160e11b8082523360048301526001600160a01b03858116602484015260448301849052608060648401526000608484015290919084169063150b7a029060a4016020604051808303816000875af11580156108b2573d6000803e3d6000fd5b505050506040513d601f19601f820116820180604052508101906108d6919061128d565b6001600160e01b031916145b6108295760405162461bcd60e51b8152600401610581906112aa565b6000818152600260205260409020546001600160a01b0316806109505760405162461bcd60e51b815260206004820152600a6024820152691393d517d3525395115160b21b6044820152606401610581565b919050565b6008805461047e90611253565b60006001600160a01b0382166109a95760405162461bcd60e51b815260206004820152600c60248201526b5a45524f5f4144445245535360a01b6044820152606401610581565b506001600160a01b031660009081526003602052604090205490565b6109cd610c63565b6109d76000610cbd565b565b6000662386f26fc100003414610a02576040516310f0c8f160e11b815260040160405180910390fd5b6000600760008154610a13906112ea565b91829055509050600a811115610a3c57604051632cdb04a160e21b815260040160405180910390fd5b61046b8382610d0f565b6001805461047e90611253565b3360008181526005602090815260408083206001600160a01b03871680855290835292819020805460ff191686151590811790915590519081529192917f17307eab39ab6107e8899845ad3d59bd9653f200f220920489ca2b5937696c31910160405180910390a35050565b610aca8585856105e6565b6001600160a01b0384163b1580610b615750604051630a85bd0160e11b808252906001600160a01b0386169063150b7a0290610b129033908a90899089908990600401611303565b6020604051808303816000875af1158015610b31573d6000803e3d6000fd5b505050506040513d601f19601f82011682018060405250810190610b55919061128d565b6001600160e01b031916145b610b7d5760405162461bcd60e51b8152600401610581906112aa565b5050505050565b60606000610b91836108fe565b6001600160a01b031603610bb85760405163d872946b60e01b815260040160405180910390fd5b6008610bc383610ddf565b604051602001610bd4929190611373565b6040516020818303038152906040529050919050565b610bf2610c63565b6001600160a01b038116610c575760405162461bcd60e51b815260206004820152602660248201527f4f776e61626c653a206e6577206f776e657220697320746865207a65726f206160448201526564647265737360d01b6064820152608401610581565b610c6081610cbd565b50565b6006546001600160a01b031633146109d75760405162461bcd60e51b815260206004820181905260248201527f4f776e61626c653a2063616c6c6572206973206e6f7420746865206f776e65726044820152606401610581565b600680546001600160a01b038381166001600160a01b0319831681179093556040519116919082907f8be0079c531659141344cd1fd0a4f28419497f9722a3daafe3b4186f6b6457e090600090a35050565b610d198282610ee8565b6001600160a01b0382163b1580610dbf5750604051630a85bd0160e11b80825233600483015260006024830181905260448301849052608060648401526084830152906001600160a01b0384169063150b7a029060a4016020604051808303816000875af1158015610d8f573d6000803e3d6000fd5b505050506040513d601f19601f82011682018060405250810190610db3919061128d565b6001600160e01b031916145b610ddb5760405162461bcd60e51b8152600401610581906112aa565b5050565b606081600003610e065750506040805180820190915260018152600360fc1b602082015290565b8160005b8115610e305780610e1a816112ea565b9150610e299050600a8361145c565b9150610e0a565b60008167ffffffffffffffff811115610e4b57610e4b611470565b6040519080825280601f01601f191660200182016040528015610e75576020820181803683370190505b5090505b8415610ee057610e8a600183611486565b9150610e97600a8661149d565b610ea29060306114b1565b60f81b818381518110610eb757610eb76114c9565b60200101906001600160f81b031916908160001a905350610ed9600a8661145c565b9450610e79565b949350505050565b6001600160a01b038216610f325760405162461bcd60e51b81526020600482015260116024820152701253959053125117d49150d25412515395607a1b6044820152606401610581565b6000818152600260205260409020546001600160a01b031615610f885760405162461bcd60e51b815260206004820152600e60248201526d1053149150511657d3525395115160921b6044820152606401610581565b6001600160a01b038216600081815260036020908152604080832080546001019055848352600290915280822080546001600160a01b0319168417905551839291907fddf252ad1be2c89b69c2b068fc378daa952ba7f163c4a11628f55a4df523b3ef908290a45050565b6001600160e01b031981168114610c6057600080fd5b60006020828403121561101b57600080fd5b813561102681610ff3565b9392505050565b60005b83811015611048578181015183820152602001611030565b83811115611057576000848401525b50505050565b602081526000825180602084015261107c81604085016020870161102d565b601f01601f19169190910160400192915050565b6000602082840312156110a257600080fd5b5035919050565b6001600160a01b0381168114610c6057600080fd5b600080604083850312156110d157600080fd5b82356110dc816110a9565b946020939093013593505050565b6000806000606084860312156110ff57600080fd5b833561110a816110a9565b9250602084013561111a816110a9565b929592945050506040919091013590565b60006020828403121561113d57600080fd5b8135611026816110a9565b6000806040838503121561115b57600080fd5b8235611166816110a9565b91506020830135801515811461117b57600080fd5b809150509250929050565b60008060008060006080868803121561119e57600080fd5b85356111a9816110a9565b945060208601356111b9816110a9565b935060408601359250606086013567ffffffffffffffff808211156111dd57600080fd5b818801915088601f8301126111f157600080fd5b81358181111561120057600080fd5b89602082850101111561121257600080fd5b9699959850939650602001949392505050565b6000806040838503121561123857600080fd5b8235611243816110a9565b9150602083013561117b816110a9565b600181811c9082168061126757607f821691505b60208210810361128757634e487b7160e01b600052602260045260246000fd5b50919050565b60006020828403121561129f57600080fd5b815161102681610ff3565b60208082526010908201526f155394d0519157d49150d2541251539560821b604082015260600190565b634e487b7160e01b600052601160045260246000fd5b6000600182016112fc576112fc6112d4565b5060010190565b6001600160a01b038681168252851660208201526040810184905260806060820181905281018290526000828460a0840137600060a0848401015260a0601f19601f85011683010190509695505050505050565b6000815161136981856020860161102d565b9290920192915050565b600080845481600182811c91508083168061138f57607f831692505b602080841082036113ae57634e487b7160e01b86526022600452602486fd5b8180156113c257600181146113d757611404565b60ff1986168952841515850289019650611404565b60008b81526020902060005b868110156113fc5781548b8201529085019083016113e3565b505084890196505b50505050505061143d61142c61142683652f6d6574612f60d01b815260060190565b86611357565b64173539b7b760d91b815260050190565b95945050505050565b634e487b7160e01b600052601260045260246000fd5b60008261146b5761146b611446565b500490565b634e487b7160e01b600052604160045260246000fd5b600082821015611498576114986112d4565b500390565b6000826114ac576114ac611446565b500690565b600082198211156114c4576114c46112d4565b500190565b634e487b7160e01b600052603260045260246000fdfea26469706673582212208a8a06dccfced6cdec16f6d8f64e67f8adda2c8a989674161dfe8b6548b0940564736f6c634300080f0033",
    "linkReferences": {}
  },
  "methodIdentifiers": {
    "MINT_PRICE()": "c002d23d",
    "TOTAL_SUPPLY()": "902d55a5",
    "approve(address,uint256)": "095ea7b3",
    "balanceOf(address)": "70a08231",
    "baseURI()": "6c0360eb",
    "currentTokenId()": "009a9b7b",
    "getApproved(uint256)": "081812fc",
    "isApprovedForAll(address,address)": "e985e9c5",
    "mintTo(address)": "755edd17",
    "name()": "06fdde03",
    "owner()": "8da5cb5b",
    "ownerOf(uint256)": "6352211e",
    "renounceOwnership()": "715018a6",
    "safeTransferFrom(address,address,uint256)": "42842e0e",
    "safeTransferFrom(address,address,uint256,bytes)": "b88d4fde",
    "setApprovalForAll(address,bool)": "a22cb465",
    "supportsInterface(bytes4)": "01ffc9a7",
    "symbol()": "95d89b41",
    "tokenURI(uint256)": "c87b56dd",
    "transferFrom(address,address,uint256)": "23b872dd",
    "transferOwnership(address)": "f2fde38b",
    "withdrawPayments(address)": "31b3eb94"
  },
  "id": 10
}